{
  "contractName": "Escrow",
  "abi": [
    {
      "inputs": [
        {
          "internalType": "address payable",
          "name": "_seller",
          "type": "address"
        },
        {
          "internalType": "address payable",
          "name": "_buyer",
          "type": "address"
        },
        {
          "internalType": "uint256",
          "name": "_securityDeposit",
          "type": "uint256"
        },
        {
          "internalType": "uint256",
          "name": "_sellerPreAgreementAmount",
          "type": "uint256"
        },
        {
          "internalType": "uint256",
          "name": "_buyerPreAgreementAmount",
          "type": "uint256"
        },
        {
          "internalType": "address",
          "name": "_feeAddress",
          "type": "address"
        }
      ],
      "stateMutability": "nonpayable",
      "type": "constructor"
    },
    {
      "anonymous": false,
      "inputs": [
        {
          "indexed": true,
          "internalType": "address",
          "name": "contractAddress",
          "type": "address"
        },
        {
          "indexed": true,
          "internalType": "address",
          "name": "from",
          "type": "address"
        },
        {
          "indexed": false,
          "internalType": "uint256",
          "name": "amount",
          "type": "uint256"
        }
      ],
      "name": "Deposit",
      "type": "event"
    },
    {
      "anonymous": false,
      "inputs": [
        {
          "indexed": true,
          "internalType": "address",
          "name": "depositor",
          "type": "address"
        },
        {
          "indexed": false,
          "internalType": "uint256",
          "name": "amount",
          "type": "uint256"
        }
      ],
      "name": "FundsDeposited",
      "type": "event"
    },
    {
      "stateMutability": "payable",
      "type": "fallback"
    },
    {
      "inputs": [],
      "name": "buyerBalance",
      "outputs": [
        {
          "internalType": "uint256",
          "name": "",
          "type": "uint256"
        }
      ],
      "stateMutability": "view",
      "type": "function"
    },
    {
      "inputs": [],
      "name": "buyerPreAgreementAmount",
      "outputs": [
        {
          "internalType": "uint256",
          "name": "",
          "type": "uint256"
        }
      ],
      "stateMutability": "view",
      "type": "function"
    },
    {
      "inputs": [],
      "name": "contractBalance",
      "outputs": [
        {
          "internalType": "uint256",
          "name": "",
          "type": "uint256"
        }
      ],
      "stateMutability": "view",
      "type": "function"
    },
    {
      "inputs": [],
      "name": "securityDeposit",
      "outputs": [
        {
          "internalType": "uint256",
          "name": "",
          "type": "uint256"
        }
      ],
      "stateMutability": "view",
      "type": "function"
    },
    {
      "inputs": [],
      "name": "sellerBalance",
      "outputs": [
        {
          "internalType": "uint256",
          "name": "",
          "type": "uint256"
        }
      ],
      "stateMutability": "view",
      "type": "function"
    },
    {
      "inputs": [],
      "name": "sellerPreAgreementAmount",
      "outputs": [
        {
          "internalType": "uint256",
          "name": "",
          "type": "uint256"
        }
      ],
      "stateMutability": "view",
      "type": "function"
    },
    {
      "stateMutability": "payable",
      "type": "receive"
    },
    {
      "inputs": [
        {
          "internalType": "address",
          "name": "_user",
          "type": "address"
        }
      ],
      "name": "deposit",
      "outputs": [],
      "stateMutability": "payable",
      "type": "function"
    },
    {
      "inputs": [
        {
          "internalType": "address",
          "name": "_user",
          "type": "address"
        }
      ],
      "name": "withdraw",
      "outputs": [],
      "stateMutability": "payable",
      "type": "function"
    },
    {
      "inputs": [],
      "name": "returnSeller",
      "outputs": [
        {
          "internalType": "address",
          "name": "",
          "type": "address"
        }
      ],
      "stateMutability": "view",
      "type": "function"
    },
    {
      "inputs": [],
      "name": "returnBuyer",
      "outputs": [
        {
          "internalType": "address",
          "name": "",
          "type": "address"
        }
      ],
      "stateMutability": "view",
      "type": "function"
    },
    {
      "inputs": [],
      "name": "returnSellerBalance",
      "outputs": [
        {
          "internalType": "uint256",
          "name": "",
          "type": "uint256"
        }
      ],
      "stateMutability": "view",
      "type": "function"
    },
    {
      "inputs": [],
      "name": "returnBuyerBalance",
      "outputs": [
        {
          "internalType": "uint256",
          "name": "",
          "type": "uint256"
        }
      ],
      "stateMutability": "view",
      "type": "function"
    },
    {
      "inputs": [],
      "name": "returnSecurityDeposit",
      "outputs": [
        {
          "internalType": "uint256",
          "name": "",
          "type": "uint256"
        }
      ],
      "stateMutability": "view",
      "type": "function"
    },
    {
      "inputs": [],
      "name": "returnSellerPreAgreementAmount",
      "outputs": [
        {
          "internalType": "uint256",
          "name": "",
          "type": "uint256"
        }
      ],
      "stateMutability": "view",
      "type": "function"
    },
    {
      "inputs": [],
      "name": "returnBuyerPreAgreementAmount",
      "outputs": [
        {
          "internalType": "uint256",
          "name": "",
          "type": "uint256"
        }
      ],
      "stateMutability": "view",
      "type": "function"
    }
  ],
  "bytecode": "0x60806040523480156200001157600080fd5b506040516200170b3803806200170b833981810160405281019062000037919062000215565b600160008190555085600160006101000a81548173ffffffffffffffffffffffffffffffffffffffff021916908373ffffffffffffffffffffffffffffffffffffffff16021790555084600260006101000a81548173ffffffffffffffffffffffffffffffffffffffff021916908373ffffffffffffffffffffffffffffffffffffffff1602179055508360078190555082600881905550816009819055506001600a8190555080600360006101000a81548173ffffffffffffffffffffffffffffffffffffffff021916908373ffffffffffffffffffffffffffffffffffffffff160217905550505050505050620002b1565b600080fd5b600073ffffffffffffffffffffffffffffffffffffffff82169050919050565b60006200015d8262000130565b9050919050565b6200016f8162000150565b81146200017b57600080fd5b50565b6000815190506200018f8162000164565b92915050565b6000819050919050565b620001aa8162000195565b8114620001b657600080fd5b50565b600081519050620001ca816200019f565b92915050565b6000620001dd8262000130565b9050919050565b620001ef81620001d0565b8114620001fb57600080fd5b50565b6000815190506200020f81620001e4565b92915050565b60008060008060008060c087890312156200023557620002346200012b565b5b60006200024589828a016200017e565b96505060206200025889828a016200017e565b95505060406200026b89828a01620001b9565b94505060606200027e89828a01620001b9565b93505060806200029189828a01620001b9565b92505060a0620002a489828a01620001fe565b9150509295509295509295565b61144a80620002c16000396000f3fe6080604052600436106100ec5760003560e01c80638b7afe2e1161008a578063d0bf21fd11610059578063d0bf21fd14610389578063db292621146103b4578063e6cdc708146103df578063f340fa011461040a57610158565b80638b7afe2e146102dd57806399dc2df314610308578063a7245b6e14610333578063ba12a5c51461035e57610158565b80634ce9e6de116100c65780634ce9e6de1461024057806351cff8d91461026b57806369cf1e9014610287578063867a06b3146102b257610158565b8063220e5ab3146101bf5780634644803f146101ea5780634680dd2f1461021557610158565b36610158573373ffffffffffffffffffffffffffffffffffffffff163073ffffffffffffffffffffffffffffffffffffffff167f5548c837ab068cf56a2c2479df0882a4922fd203edb7517321831d95078c5f623460405161014e9190610f21565b60405180910390a3005b3373ffffffffffffffffffffffffffffffffffffffff163073ffffffffffffffffffffffffffffffffffffffff167f5548c837ab068cf56a2c2479df0882a4922fd203edb7517321831d95078c5f62346040516101b59190610f21565b60405180910390a3005b3480156101cb57600080fd5b506101d4610426565b6040516101e19190610f21565b60405180910390f35b3480156101f657600080fd5b506101ff61042c565b60405161020c9190610f21565b60405180910390f35b34801561022157600080fd5b5061022a610436565b6040516102379190610f21565b60405180910390f35b34801561024c57600080fd5b50610255610440565b6040516102629190610f7d565b60405180910390f35b61028560048036038101906102809190610fc9565b61046a565b005b34801561029357600080fd5b5061029c610c28565b6040516102a99190610f21565b60405180910390f35b3480156102be57600080fd5b506102c7610c32565b6040516102d49190610f21565b60405180910390f35b3480156102e957600080fd5b506102f2610c38565b6040516102ff9190610f21565b60405180910390f35b34801561031457600080fd5b5061031d610c3e565b60405161032a9190610f21565b60405180910390f35b34801561033f57600080fd5b50610348610c44565b6040516103559190610f21565b60405180910390f35b34801561036a57600080fd5b50610373610c4a565b6040516103809190610f7d565b60405180910390f35b34801561039557600080fd5b5061039e610c74565b6040516103ab9190610f21565b60405180910390f35b3480156103c057600080fd5b506103c9610c7e565b6040516103d69190610f21565b60405180910390f35b3480156103eb57600080fd5b506103f4610c88565b6040516104019190610f21565b60405180910390f35b610424600480360381019061041f9190610fc9565b610c8e565b005b60075481565b6000600554905090565b6000600654905090565b6000600260009054906101000a900473ffffffffffffffffffffffffffffffffffffffff16905090565b610472610e6d565b600047036104b5576040517f08c379a00000000000000000000000000000000000000000000000000000000081526004016104ac90611053565b60405180910390fd5b6104dd60646104cf600a5447610ebc90919063ffffffff16565b610ed290919063ffffffff16565b600b81905550600854600554111561066c578073ffffffffffffffffffffffffffffffffffffffff16600160009054906101000a900473ffffffffffffffffffffffffffffffffffffffff1673ffffffffffffffffffffffffffffffffffffffff161461057f576040517f08c379a0000000000000000000000000000000000000000000000000000000008152600401610576906110bf565b60405180910390fd5b600160009054906101000a900473ffffffffffffffffffffffffffffffffffffffff1673ffffffffffffffffffffffffffffffffffffffff166108fc6105d0600b5447610ee890919063ffffffff16565b9081150290604051600060405180830381858888f193505050501580156105fb573d6000803e3d6000fd5b50600360009054906101000a900473ffffffffffffffffffffffffffffffffffffffff1673ffffffffffffffffffffffffffffffffffffffff166108fc600b549081150290604051600060405180830381858888f19350505050158015610666573d6000803e3d6000fd5b50610c1d565b60075460065411156107f5578073ffffffffffffffffffffffffffffffffffffffff16600260009054906101000a900473ffffffffffffffffffffffffffffffffffffffff1673ffffffffffffffffffffffffffffffffffffffff1614610708576040517f08c379a00000000000000000000000000000000000000000000000000000000081526004016106ff9061112b565b60405180910390fd5b600260009054906101000a900473ffffffffffffffffffffffffffffffffffffffff1673ffffffffffffffffffffffffffffffffffffffff166108fc610759600b5447610ee890919063ffffffff16565b9081150290604051600060405180830381858888f19350505050158015610784573d6000803e3d6000fd5b50600360009054906101000a900473ffffffffffffffffffffffffffffffffffffffff1673ffffffffffffffffffffffffffffffffffffffff166108fc600b549081150290604051600060405180830381858888f193505050501580156107ef573d6000803e3d6000fd5b50610c1c565b600047141580156108095750600854600554105b80156108185750600954600654105b15610c1b57600260009054906101000a900473ffffffffffffffffffffffffffffffffffffffff1673ffffffffffffffffffffffffffffffffffffffff168173ffffffffffffffffffffffffffffffffffffffff1614806108c65750600160009054906101000a900473ffffffffffffffffffffffffffffffffffffffff1673ffffffffffffffffffffffffffffffffffffffff168173ffffffffffffffffffffffffffffffffffffffff16145b610905576040517f08c379a00000000000000000000000000000000000000000000000000000000081526004016108fc906111bd565b60405180910390fd5b600260009054906101000a900473ffffffffffffffffffffffffffffffffffffffff1673ffffffffffffffffffffffffffffffffffffffff168173ffffffffffffffffffffffffffffffffffffffff161480156109655750600060065414155b15610a91576109946064610986600a54600654610ebc90919063ffffffff16565b610ed290919063ffffffff16565b600b81905550600260009054906101000a900473ffffffffffffffffffffffffffffffffffffffff1673ffffffffffffffffffffffffffffffffffffffff166108fc6109ed600b54600654610ee890919063ffffffff16565b9081150290604051600060405180830381858888f19350505050158015610a18573d6000803e3d6000fd5b50600360009054906101000a900473ffffffffffffffffffffffffffffffffffffffff1673ffffffffffffffffffffffffffffffffffffffff166108fc600b549081150290604051600060405180830381858888f19350505050158015610a83573d6000803e3d6000fd5b506000600681905550610c1a565b600160009054906101000a900473ffffffffffffffffffffffffffffffffffffffff1673ffffffffffffffffffffffffffffffffffffffff168173ffffffffffffffffffffffffffffffffffffffff16148015610af15750600060055414155b15610c1957610b206064610b12600a54600554610ebc90919063ffffffff16565b610ed290919063ffffffff16565b600b81905550600160009054906101000a900473ffffffffffffffffffffffffffffffffffffffff1673ffffffffffffffffffffffffffffffffffffffff166108fc610b79600b54600554610ee890919063ffffffff16565b9081150290604051600060405180830381858888f19350505050158015610ba4573d6000803e3d6000fd5b50600360009054906101000a900473ffffffffffffffffffffffffffffffffffffffff1673ffffffffffffffffffffffffffffffffffffffff166108fc600b549081150290604051600060405180830381858888f19350505050158015610c0f573d6000803e3d6000fd5b5060006005819055505b5b5b5b5b610c25610efe565b50565b6000600954905090565b60055481565b60045481565b60095481565b60085481565b6000600160009054906101000a900473ffffffffffffffffffffffffffffffffffffffff16905090565b6000600854905090565b6000600754905090565b60065481565b600160009054906101000a900473ffffffffffffffffffffffffffffffffffffffff1673ffffffffffffffffffffffffffffffffffffffff168173ffffffffffffffffffffffffffffffffffffffff161480610d375750600260009054906101000a900473ffffffffffffffffffffffffffffffffffffffff1673ffffffffffffffffffffffffffffffffffffffff168173ffffffffffffffffffffffffffffffffffffffff16145b610d76576040517f08c379a0000000000000000000000000000000000000000000000000000000008152600401610d6d9061124f565b60405180910390fd5b600160009054906101000a900473ffffffffffffffffffffffffffffffffffffffff1673ffffffffffffffffffffffffffffffffffffffff168173ffffffffffffffffffffffffffffffffffffffff1603610de9573460056000828254610ddd919061129e565b92505081905550610e03565b3460066000828254610dfb919061129e565b925050819055505b3460046000828254610e15919061129e565b925050819055508073ffffffffffffffffffffffffffffffffffffffff167f543ba50a5eec5e6178218e364b1d0f396157b3c8fa278522c2cb7fd99407d47434604051610e629190610f21565b60405180910390a250565b600260005403610eb2576040517f08c379a0000000000000000000000000000000000000000000000000000000008152600401610ea99061131e565b60405180910390fd5b6002600081905550565b60008183610eca919061133e565b905092915050565b60008183610ee091906113af565b905092915050565b60008183610ef691906113e0565b905092915050565b6001600081905550565b6000819050919050565b610f1b81610f08565b82525050565b6000602082019050610f366000830184610f12565b92915050565b600073ffffffffffffffffffffffffffffffffffffffff82169050919050565b6000610f6782610f3c565b9050919050565b610f7781610f5c565b82525050565b6000602082019050610f926000830184610f6e565b92915050565b600080fd5b610fa681610f5c565b8114610fb157600080fd5b50565b600081359050610fc381610f9d565b92915050565b600060208284031215610fdf57610fde610f98565b5b6000610fed84828501610fb4565b91505092915050565b600082825260208201905092915050565b7f436f6e747261637420646f6e277420686176652066756e647300000000000000600082015250565b600061103d601983610ff6565b915061104882611007565b602082019050919050565b6000602082019050818103600083015261106c81611030565b9050919050565b7f596f7520617265206e6f74207468652073656c6c657200000000000000000000600082015250565b60006110a9601683610ff6565b91506110b482611073565b602082019050919050565b600060208201905081810360008301526110d88161109c565b9050919050565b7f596f7520617265206e6f74207468652062757965720000000000000000000000600082015250565b6000611115601583610ff6565b9150611120826110df565b602082019050919050565b6000602082019050818103600083015261114481611108565b9050919050565b7f4a757374206275796572206f722073656c6c65722063616e207769746864726160008201527f7700000000000000000000000000000000000000000000000000000000000000602082015250565b60006111a7602183610ff6565b91506111b28261114b565b604082019050919050565b600060208201905081810360008301526111d68161119a565b9050919050565b7f4f6e6c79207468652073656c6c6572206f722062757965722063616e2064657060008201527f6f7369742066756e647300000000000000000000000000000000000000000000602082015250565b6000611239602a83610ff6565b9150611244826111dd565b604082019050919050565b600060208201905081810360008301526112688161122c565b9050919050565b7f4e487b7100000000000000000000000000000000000000000000000000000000600052601160045260246000fd5b60006112a982610f08565b91506112b483610f08565b92508282019050808211156112cc576112cb61126f565b5b92915050565b7f5265656e7472616e637947756172643a207265656e7472616e742063616c6c00600082015250565b6000611308601f83610ff6565b9150611313826112d2565b602082019050919050565b60006020820190508181036000830152611337816112fb565b9050919050565b600061134982610f08565b915061135483610f08565b925082820261136281610f08565b915082820484148315176113795761137861126f565b5b5092915050565b7f4e487b7100000000000000000000000000000000000000000000000000000000600052601260045260246000fd5b60006113ba82610f08565b91506113c583610f08565b9250826113d5576113d4611380565b5b828204905092915050565b60006113eb82610f08565b91506113f683610f08565b925082820390508181111561140e5761140d61126f565b5b9291505056fea2646970667358221220df46a43ba94d098be3e5feeb0a87145e2152ae6ce0a845236a1a521b9942a6e164736f6c63430008130033",
  "immutableReferences": {},
  "source": "// SPDX-License-Identifier: MIT\npragma solidity ^0.8.0;\n\nimport \"@openzeppelin/contracts/security/ReentrancyGuard.sol\";\nimport \"@openzeppelin/contracts/utils/math/SafeMath.sol\";\n\ncontract Escrow is ReentrancyGuard {\n    address payable seller;\n    address payable buyer;\n    address payable feeAddress;\n\n    uint256 public contractBalance;\n    uint256 public sellerBalance;\n    uint256 public buyerBalance;\n\n    uint256 public securityDeposit;\n    uint256 public sellerPreAgreementAmount;\n    uint256 public buyerPreAgreementAmount;\n\n    uint256 transferFee;\n    uint256 fee;\n\n    event FundsDeposited(address indexed depositor, uint256 amount);\n\n    event Deposit(\n        address indexed contractAddress,\n        address indexed from,\n        uint amount\n    );\n\n    using SafeMath for uint256;\n\n    constructor(\n        address payable _seller,\n        address payable _buyer,\n        uint256 _securityDeposit,\n        uint256 _sellerPreAgreementAmount,\n        uint256 _buyerPreAgreementAmount,\n        address _feeAddress\n    ) {\n        seller = _seller;\n        buyer = _buyer;\n        securityDeposit = _securityDeposit;\n        sellerPreAgreementAmount = _sellerPreAgreementAmount;\n        buyerPreAgreementAmount = _buyerPreAgreementAmount;\n        transferFee = 1;\n        feeAddress = payable(_feeAddress);\n    }\n\n    fallback() external payable {\n        emit Deposit(address(this), msg.sender, msg.value);\n    }\n\n    receive() external payable {\n        emit Deposit(address(this), msg.sender, msg.value);\n    }\n\n    function deposit(address _user) external payable {\n        require(\n            _user == seller || _user == buyer,\n            \"Only the seller or buyer can deposit funds\"\n        );\n        if (_user == seller) {\n            sellerBalance += msg.value;\n        } else {\n            buyerBalance += msg.value;\n        }\n        contractBalance += msg.value;\n        emit FundsDeposited(_user, msg.value);\n    }\n\n    function withdraw(address _user) external payable nonReentrant {\n        require(address(this).balance != 0, \"Contract don't have funds\");\n        fee = address(this).balance.mul(transferFee).div(100);\n        if (sellerBalance > sellerPreAgreementAmount) {\n            require(seller == _user, \"You are not the seller\");\n            seller.transfer(address(this).balance.sub(fee));\n            feeAddress.transfer(fee);\n        } else if (buyerBalance > securityDeposit) {\n            require(buyer == _user, \"You are not the buyer\");\n            buyer.transfer(address(this).balance.sub(fee));\n            feeAddress.transfer(fee);\n        }\n        // neither buyer nor seller deposited the pre-agreement\n        else if (\n            address(this).balance != 0 &&\n            sellerBalance < sellerPreAgreementAmount &&\n            buyerBalance < buyerPreAgreementAmount\n        ) {\n            require(\n                _user == buyer || _user == seller,\n                \"Just buyer or seller can withdraw\"\n            );\n            if (_user == buyer && buyerBalance != 0) {\n                fee = buyerBalance.mul(transferFee).div(100);\n                buyer.transfer(buyerBalance.sub(fee));\n                feeAddress.transfer(fee);\n                buyerBalance = 0;\n            } else if (_user == seller && sellerBalance != 0) {\n                fee = sellerBalance.mul(transferFee).div(100);\n                seller.transfer(sellerBalance.sub(fee));\n                feeAddress.transfer(fee);\n                sellerBalance = 0;\n            }\n        }\n    }\n\n    function returnSeller() public view returns (address) {\n        return seller;\n    }\n\n    function returnBuyer() public view returns (address) {\n        return buyer;\n    }\n\n    function returnSellerBalance() public view returns (uint) {\n        return sellerBalance;\n    }\n\n    function returnBuyerBalance() public view returns (uint) {\n        return buyerBalance;\n    }\n\n    function returnSecurityDeposit() public view returns (uint) {\n        return securityDeposit;\n    }\n\n    function returnSellerPreAgreementAmount() public view returns (uint) {\n        return sellerPreAgreementAmount;\n    }\n\n    function returnBuyerPreAgreementAmount() public view returns (uint) {\n        return buyerPreAgreementAmount;\n    }\n}\n",
  "sourcePath": "/Users/moseti/Projeks/areabox/rem/areabox_firebase/areaboi3/src/smart-contracts/contracts/escrow.sol",
  "compiler": {
    "name": "solc",
    "version": "0.8.19+commit.7dd6d404.Emscripten.clang"
  },
  "schemaVersion": "3.4.13",
  "updatedAt": "2023-04-25T14:23:46.729Z",
  "devdoc": {
    "kind": "dev",
    "methods": {},
    "version": 1
  },
  "userdoc": {
    "kind": "user",
    "methods": {},
    "version": 1
  }
}